{
  "contractName": "Finchain",
  "abi": [
    {
      "constant": true,
      "inputs": [
        {
          "name": "",
          "type": "address"
        },
        {
          "name": "",
          "type": "uint256"
        }
      ],
      "name": "stocks",
      "outputs": [
        {
          "name": "ticker",
          "type": "string"
        },
        {
          "name": "price",
          "type": "uint256"
        },
        {
          "name": "timestamp",
          "type": "uint256"
        },
        {
          "name": "sourceID",
          "type": "address"
        }
      ],
      "payable": false,
      "stateMutability": "view",
      "type": "function"
    },
    {
      "constant": true,
      "inputs": [
        {
          "name": "",
          "type": "address"
        }
      ],
      "name": "whiteList",
      "outputs": [
        {
          "name": "",
          "type": "bool"
        }
      ],
      "payable": false,
      "stateMutability": "view",
      "type": "function"
    },
    {
      "constant": true,
      "inputs": [],
      "name": "threshold",
      "outputs": [
        {
          "name": "",
          "type": "uint256"
        }
      ],
      "payable": false,
      "stateMutability": "view",
      "type": "function"
    },
    {
      "constant": true,
      "inputs": [
        {
          "name": "",
          "type": "uint256"
        }
      ],
      "name": "oracleArr",
      "outputs": [
        {
          "name": "",
          "type": "address"
        }
      ],
      "payable": false,
      "stateMutability": "view",
      "type": "function"
    },
    {
      "constant": true,
      "inputs": [],
      "name": "owner",
      "outputs": [
        {
          "name": "",
          "type": "address"
        }
      ],
      "payable": false,
      "stateMutability": "view",
      "type": "function"
    },
    {
      "constant": true,
      "inputs": [],
      "name": "noOfStocks",
      "outputs": [
        {
          "name": "",
          "type": "uint256"
        }
      ],
      "payable": false,
      "stateMutability": "view",
      "type": "function"
    },
    {
      "inputs": [
        {
          "name": "_threshold",
          "type": "uint256"
        },
        {
          "name": "_noOfStocks",
          "type": "uint256"
        }
      ],
      "payable": false,
      "stateMutability": "nonpayable",
      "type": "constructor"
    },
    {
      "anonymous": false,
      "inputs": [
        {
          "indexed": true,
          "name": "_from",
          "type": "address"
        },
        {
          "indexed": false,
          "name": "_ticker",
          "type": "string"
        },
        {
          "indexed": false,
          "name": "_price",
          "type": "uint256"
        },
        {
          "indexed": false,
          "name": "_timestamp",
          "type": "uint256"
        },
        {
          "indexed": false,
          "name": "_id",
          "type": "address"
        }
      ],
      "name": "stockData",
      "type": "event"
    },
    {
      "anonymous": false,
      "inputs": [
        {
          "indexed": false,
          "name": "_ticker1",
          "type": "string"
        },
        {
          "indexed": false,
          "name": "_price1",
          "type": "uint256"
        },
        {
          "indexed": false,
          "name": "_ticker2",
          "type": "string"
        },
        {
          "indexed": false,
          "name": "_price2",
          "type": "uint256"
        },
        {
          "indexed": false,
          "name": "_ticker3",
          "type": "string"
        },
        {
          "indexed": false,
          "name": "_price3",
          "type": "uint256"
        }
      ],
      "name": "discrepancy",
      "type": "event"
    },
    {
      "constant": false,
      "inputs": [
        {
          "name": "_ticker",
          "type": "string"
        },
        {
          "name": "_price",
          "type": "uint256"
        },
        {
          "name": "i",
          "type": "uint256"
        }
      ],
      "name": "updateStock",
      "outputs": [],
      "payable": false,
      "stateMutability": "nonpayable",
      "type": "function"
    },
    {
      "constant": false,
      "inputs": [
        {
          "name": "_source",
          "type": "address"
        }
      ],
      "name": "addSource",
      "outputs": [],
      "payable": false,
      "stateMutability": "nonpayable",
      "type": "function"
    },
    {
      "constant": true,
      "inputs": [],
      "name": "readStockData",
      "outputs": [
        {
          "components": [
            {
              "name": "ticker",
              "type": "string"
            },
            {
              "name": "price",
              "type": "uint256"
            },
            {
              "name": "timestamp",
              "type": "uint256"
            },
            {
              "name": "sourceID",
              "type": "address"
            }
          ],
          "name": "",
          "type": "tuple[]"
        }
      ],
      "payable": false,
      "stateMutability": "view",
      "type": "function"
    },
    {
      "constant": false,
      "inputs": [
        {
          "name": "_threshold",
          "type": "uint256"
        }
      ],
      "name": "configureErrorMargins",
      "outputs": [],
      "payable": false,
      "stateMutability": "nonpayable",
      "type": "function"
    }
  ],
  "bytecode": "0x60806040523480156200001157600080fd5b5060405160408062001bc8833981018060405262000033919081019062000119565b336000806101000a81548173ffffffffffffffffffffffffffffffffffffffff021916908373ffffffffffffffffffffffffffffffffffffffff1602179055506001600460008060009054906101000a900473ffffffffffffffffffffffffffffffffffffffff1673ffffffffffffffffffffffffffffffffffffffff1673ffffffffffffffffffffffffffffffffffffffff16815260200190815260200160002060006101000a81548160ff021916908315150217905550816001819055508060028190555050506200017e565b600081519050620001138162000164565b92915050565b600080604083850312156200012d57600080fd5b60006200013d8582860162000102565b9250506020620001508582860162000102565b9150509250929050565b6000819050919050565b6200016f816200015a565b81146200017b57600080fd5b50565b611a3a806200018e6000396000f3fe608060405234801561001057600080fd5b506004361061009e5760003560e01c8063661e04e611610066578063661e04e6146101705780638da5cb5b1461018e578063967561aa146101ac578063c082b8fc146101c8578063d3fcf7ba146101e65761009e565b80631c26821d146100a35780632a142b0b146100d6578063372c12b1146100f257806342cde4e814610122578063483ae77714610140575b600080fd5b6100bd60048036036100b89190810190611218565b610202565b6040516100cd949392919061170c565b60405180910390f35b6100f060048036036100eb91908101906111ef565b610304565b005b61010c600480360361010791908101906111ef565b610454565b60405161011991906116f1565b60405180910390f35b61012a610474565b604051610137919061184e565b60405180910390f35b61015a600480360361015591908101906112bb565b61047a565b60405161016791906116b4565b60405180910390f35b6101786104b6565b60405161018591906116cf565b60405180910390f35b6101966106f1565b6040516101a391906116b4565b60405180910390f35b6101c660048036036101c19190810190611254565b610716565b005b6101d06109f4565b6040516101dd919061184e565b60405180910390f35b61020060048036036101fb91908101906112bb565b6109fa565b005b6006602052816000526040600020818154811061021b57fe5b906000526020600020906004020160009150915050806000018054600181600116156101000203166002900480601f0160208091040260200160405190810160405280929190818152602001828054600181600116156101000203166002900480156102c85780601f1061029d576101008083540402835291602001916102c8565b820191906000526020600020905b8154815290600101906020018083116102ab57829003601f168201915b5050505050908060010154908060020154908060030160009054906101000a900473ffffffffffffffffffffffffffffffffffffffff16905084565b6000809054906101000a900473ffffffffffffffffffffffffffffffffffffffff1673ffffffffffffffffffffffffffffffffffffffff163373ffffffffffffffffffffffffffffffffffffffff1614610393576040517f08c379a000000000000000000000000000000000000000000000000000000000815260040161038a906117ce565b60405180910390fd5b6001600460008373ffffffffffffffffffffffffffffffffffffffff1673ffffffffffffffffffffffffffffffffffffffff16815260200190815260200160002060006101000a81548160ff02191690831515021790555060058190806001815401808255809150509060018203906000526020600020016000909192909190916101000a81548173ffffffffffffffffffffffffffffffffffffffff021916908373ffffffffffffffffffffffffffffffffffffffff1602179055505050565b60046020528060005260406000206000915054906101000a900460ff1681565b60015481565b6005818154811061048757fe5b906000526020600020016000915054906101000a900473ffffffffffffffffffffffffffffffffffffffff1681565b606060011515600460003373ffffffffffffffffffffffffffffffffffffffff1673ffffffffffffffffffffffffffffffffffffffff16815260200190815260200160002060009054906101000a900460ff1615151461054b576040517f08c379a00000000000000000000000000000000000000000000000000000000081526004016105429061180e565b60405180910390fd5b600660003373ffffffffffffffffffffffffffffffffffffffff1673ffffffffffffffffffffffffffffffffffffffff168152602001908152602001600020805480602002602001604051908101604052809291908181526020016000905b828210156106e85783829060005260206000209060040201604051806080016040529081600082018054600181600116156101000203166002900480601f0160208091040260200160405190810160405280929190818152602001828054600181600116156101000203166002900480156106665780601f1061063b57610100808354040283529160200191610666565b820191906000526020600020905b81548152906001019060200180831161064957829003601f168201915b5050505050815260200160018201548152602001600282015481526020016003820160009054906101000a900473ffffffffffffffffffffffffffffffffffffffff1673ffffffffffffffffffffffffffffffffffffffff1673ffffffffffffffffffffffffffffffffffffffff1681525050815260200190600101906105aa565b50505050905090565b6000809054906101000a900473ffffffffffffffffffffffffffffffffffffffff1681565b60011515600460003373ffffffffffffffffffffffffffffffffffffffff1673ffffffffffffffffffffffffffffffffffffffff16815260200190815260200160002060009054906101000a900460ff161515146107a9576040517f08c379a00000000000000000000000000000000000000000000000000000000081526004016107a09061180e565b60405180910390fd5b60038054106107ed576040517f08c379a00000000000000000000000000000000000000000000000000000000081526004016107e4906117ee565b60405180910390fd5b600660003373ffffffffffffffffffffffffffffffffffffffff1673ffffffffffffffffffffffffffffffffffffffff16815260200190815260200160002060405180608001604052808581526020018481526020014281526020013373ffffffffffffffffffffffffffffffffffffffff168152509080600181540180825580915050906001820390600052602060002090600402016000909192909190915060008201518160000190805190602001906108aa929190610ffa565b50602082015181600101556040820151816002015560608201518160030160006101000a81548173ffffffffffffffffffffffffffffffffffffffff021916908373ffffffffffffffffffffffffffffffffffffffff160217905550505050600160025403811415610929576003600081548092919060010191905055505b6003805414156109ef5760006003819055506109ee600560008154811061094c57fe5b9060005260206000200160009054906101000a900473ffffffffffffffffffffffffffffffffffffffff16600560018154811061098557fe5b9060005260206000200160009054906101000a900473ffffffffffffffffffffffffffffffffffffffff1660056002815481106109be57fe5b9060005260206000200160009054906101000a900473ffffffffffffffffffffffffffffffffffffffff16610a93565b5b505050565b60025481565b6000809054906101000a900473ffffffffffffffffffffffffffffffffffffffff1673ffffffffffffffffffffffffffffffffffffffff163373ffffffffffffffffffffffffffffffffffffffff1614610a89576040517f08c379a0000000000000000000000000000000000000000000000000000000008152600401610a809061182e565b60405180910390fd5b8060018190555050565b60005b6001811015610e4b576000600660008673ffffffffffffffffffffffffffffffffffffffff1673ffffffffffffffffffffffffffffffffffffffff1681526020019081526020016000208281548110610aeb57fe5b90600052602060002090600402016001015490506000600660008673ffffffffffffffffffffffffffffffffffffffff1673ffffffffffffffffffffffffffffffffffffffff1681526020019081526020016000208381548110610b4b57fe5b90600052602060002090600402016001015490506000600660008673ffffffffffffffffffffffffffffffffffffffff1673ffffffffffffffffffffffffffffffffffffffff1681526020019081526020016000208481548110610bab57fe5b90600052602060002090600402016001015490506000610bcc848484610f32565b9050600115158115151415610e3c577f6e2b598a0b90c5d98001a69969b2684c4578c680e47c28807030c0eef8f3f799600660008a73ffffffffffffffffffffffffffffffffffffffff1673ffffffffffffffffffffffffffffffffffffffff1681526020019081526020016000208681548110610c4657fe5b9060005260206000209060040201600001600660008b73ffffffffffffffffffffffffffffffffffffffff1673ffffffffffffffffffffffffffffffffffffffff1681526020019081526020016000208781548110610ca157fe5b906000526020600020906004020160010154600660008b73ffffffffffffffffffffffffffffffffffffffff1673ffffffffffffffffffffffffffffffffffffffff1681526020019081526020016000208881548110610cfd57fe5b9060005260206000209060040201600001600660008c73ffffffffffffffffffffffffffffffffffffffff1673ffffffffffffffffffffffffffffffffffffffff1681526020019081526020016000208981548110610d5857fe5b906000526020600020906004020160010154600660008c73ffffffffffffffffffffffffffffffffffffffff1673ffffffffffffffffffffffffffffffffffffffff1681526020019081526020016000208a81548110610db457fe5b9060005260206000209060040201600001600660008d73ffffffffffffffffffffffffffffffffffffffff1673ffffffffffffffffffffffffffffffffffffffff1681526020019081526020016000208b81548110610e0f57fe5b906000526020600020906004020160010154604051610e3396959493929190611758565b60405180910390a15b50505050806001019050610a96565b600660008573ffffffffffffffffffffffffffffffffffffffff1673ffffffffffffffffffffffffffffffffffffffff1681526020019081526020016000206000610e96919061107a565b600660008473ffffffffffffffffffffffffffffffffffffffff1673ffffffffffffffffffffffffffffffffffffffff1681526020019081526020016000206000610ee1919061107a565b600660008373ffffffffffffffffffffffffffffffffffffffff1673ffffffffffffffffffffffffffffffffffffffff1681526020019081526020016000206000610f2c919061107a565b50505050565b600080610f3f8585610fe1565b90506000610f4d8285610fe1565b9050600060648283890381610f5e57fe5b04029050600060648384890381610f7157fe5b04029050600060648485890381610f8457fe5b04029050600154831115610fa057600195505050505050610fda565b600154821115610fb857600195505050505050610fda565b600154811115610fd057600195505050505050610fda565b6000955050505050505b9392505050565b6000818310610ff05781610ff2565b825b905092915050565b828054600181600116156101000203166002900490600052602060002090601f016020900481019282601f1061103b57805160ff1916838001178555611069565b82800160010185558215611069579182015b8281111561106857825182559160200191906001019061104d565b5b509050611076919061109e565b5090565b508054600082556004029060005260206000209081019061109b91906110c3565b50565b6110c091905b808211156110bc5760008160009055506001016110a4565b5090565b90565b61112691905b8082111561112257600080820160006110e29190611129565b600182016000905560028201600090556003820160006101000a81549073ffffffffffffffffffffffffffffffffffffffff0219169055506004016110c9565b5090565b90565b50805460018160011615610100020316600290046000825580601f1061114f575061116e565b601f01602090049060005260206000209081019061116d919061109e565b5b50565b600081359050611180816119d2565b92915050565b600082601f83011261119757600080fd5b81356111aa6111a582611896565b611869565b915080825260208301602083018583830111156111c657600080fd5b6111d183828461197f565b50505092915050565b6000813590506111e9816119e9565b92915050565b60006020828403121561120157600080fd5b600061120f84828501611171565b91505092915050565b6000806040838503121561122b57600080fd5b600061123985828601611171565b925050602061124a858286016111da565b9150509250929050565b60008060006060848603121561126957600080fd5b600084013567ffffffffffffffff81111561128357600080fd5b61128f86828701611186565b93505060206112a0868287016111da565b92505060406112b1868287016111da565b9150509250925092565b6000602082840312156112cd57600080fd5b60006112db848285016111da565b91505092915050565b60006112f08383611633565b905092915050565b61130181611937565b82525050565b61131081611937565b82525050565b6000611321826118e1565b61132b8185611904565b93508360208202850161133d856118c2565b8060005b85811015611379578484038952815161135a85826112e4565b9450611365836118f7565b925060208a01995050600181019050611341565b50829750879550505050505092915050565b61139481611949565b82525050565b60006113a5826118ec565b6113af8185611915565b93506113bf81856020860161198e565b6113c8816119c1565b840191505092915050565b60006113de826118ec565b6113e88185611926565b93506113f881856020860161198e565b611401816119c1565b840191505092915050565b600081546001811660008114611429576001811461144f57611493565b607f600283041661143a8187611926565b955060ff198316865260208601935050611493565b6002820461145d8187611926565b9550611468856118cf565b60005b8281101561148a5781548189015260018201915060208101905061146b565b80880195505050505b505092915050565b60006114a8602283611926565b91507f4f6e6c79206f776e65722063616e2063616c6c20746869732066756e6374696f60008301527f6e2e0000000000000000000000000000000000000000000000000000000000006020830152604082019050919050565b600061150e602683611926565b91507f4f6e6c79207468726565206f7261636c65732063757272656e746c792070657260008301527f6d697474656400000000000000000000000000000000000000000000000000006020830152604082019050919050565b6000611574603183611926565b91507f4f6e6c7920617574686f72697a6564206164647265737365732063616e20636160008301527f6c6c20746869732066756e6374696f6e2e0000000000000000000000000000006020830152604082019050919050565b60006115da603183611926565b91507f4f6e6c7920746865206f776e6572206f66207468697320636f6e74726163742060008301527f63616e206d6f646966792076616c7565730000000000000000000000000000006020830152604082019050919050565b60006080830160008301518482036000860152611650828261139a565b91505060208301516116656020860182611696565b5060408301516116786040860182611696565b50606083015161168b60608601826112f8565b508091505092915050565b61169f81611975565b82525050565b6116ae81611975565b82525050565b60006020820190506116c96000830184611307565b92915050565b600060208201905081810360008301526116e98184611316565b905092915050565b6000602082019050611706600083018461138b565b92915050565b6000608082019050818103600083015261172681876113d3565b905061173560208301866116a5565b61174260408301856116a5565b61174f6060830184611307565b95945050505050565b600060c0820190508181036000830152611772818961140c565b905061178160208301886116a5565b8181036040830152611793818761140c565b90506117a260608301866116a5565b81810360808301526117b4818561140c565b90506117c360a08301846116a5565b979650505050505050565b600060208201905081810360008301526117e78161149b565b9050919050565b6000602082019050818103600083015261180781611501565b9050919050565b6000602082019050818103600083015261182781611567565b9050919050565b60006020820190508181036000830152611847816115cd565b9050919050565b600060208201905061186360008301846116a5565b92915050565b6000604051905081810181811067ffffffffffffffff8211171561188c57600080fd5b8060405250919050565b600067ffffffffffffffff8211156118ad57600080fd5b601f19601f8301169050602081019050919050565b6000602082019050919050565b60008160005260206000209050919050565b600081519050919050565b600081519050919050565b6000602082019050919050565b600082825260208201905092915050565b600082825260208201905092915050565b600082825260208201905092915050565b600061194282611955565b9050919050565b60008115159050919050565b600073ffffffffffffffffffffffffffffffffffffffff82169050919050565b6000819050919050565b82818337600083830152505050565b60005b838110156119ac578082015181840152602081019050611991565b838111156119bb576000848401525b50505050565b6000601f19601f8301169050919050565b6119db81611937565b81146119e657600080fd5b50565b6119f281611975565b81146119fd57600080fd5b5056fea265627a7a72305820248306cc32ad636669b50c03ce1c500b6cf38b793cf2b2fb159a14d0e5d24dcf6c6578706572696d656e74616cf50037",
  "source": "pragma solidity >=0.5.0;\r\npragma experimental ABIEncoderV2 ; //To remove or not remove?\r\n\r\ncontract Finchain {\r\n     address public owner;\r\n     uint public threshold;\r\n     uint public noOfStocks;\r\n     uint shadowCounter; //used to keep track of how many of the oracles updated their stocks\r\n\r\n     modifier isAuthorized() {\r\n     require (whiteList[msg.sender] == true,\r\n        \"Only authorized addresses can call this function.\");\r\n      _;\r\n     }\r\n\r\n     //struct to store Stock data\r\n     struct Stock {\r\n         string ticker;\r\n         uint256 price;\r\n         uint timestamp;\r\n         address sourceID;\r\n     }\r\n\r\n     //event to emit stock data\r\n     event stockData(\r\n         address indexed _from,\r\n         string _ticker,\r\n         uint256 _price,\r\n         uint _timestamp,\r\n         address _id\r\n    );\r\n\r\n    //event shows which stock has a possible arbitrage opportunity at a specified price\r\n     event discrepancy(\r\n         string _ticker1,\r\n         uint256 _price1,\r\n         string _ticker2,\r\n         uint256 _price2,\r\n         string _ticker3,\r\n         uint256 _price3\r\n    );\r\n\r\n     mapping (address => bool) public whiteList; //whitelisted oracle addresses\r\n     address[] public oracleArr; //array of oracle addresses\r\n     /*\r\n     Mapping of oracle Addresses to stock arrays\r\n     This allocates an array of stock structs to every oracle address\r\n     */\r\n     mapping(address => Stock[]) public stocks;\r\n\r\n\r\n     constructor (uint _threshold, uint _noOfStocks) public {\r\n        owner = msg.sender;\r\n        whiteList[owner] = true;\r\n        threshold = _threshold;\r\n        noOfStocks = _noOfStocks;\r\n  }\r\n\r\n     function updateStock (\r\n         string memory _ticker,\r\n         uint256 _price,\r\n         uint i // array index, to be passed by nodeJS process\r\n         )\r\n         public isAuthorized{\r\n         require (shadowCounter < 3, \"Only three oracles currently permitted\");\r\n\r\n         stocks[msg.sender].push(Stock({ticker: _ticker, price: _price, timestamp: now, sourceID: msg.sender }));\r\n         \r\n         if (i == (noOfStocks - 1)) shadowCounter++;\r\n\r\n         if (shadowCounter == 3){\r\n             shadowCounter = 0;\r\n             compareStocks(oracleArr[0], oracleArr[1], oracleArr[2]); //move on to next state\r\n         }\r\n     }\r\n\r\n     function compareStocks(address _source1, address _source2, address _source3) private {\r\n         \r\n         uint k; //counter\r\n         for (k; k < 1 ; ++k){ //k < 1 just as an example of 1 stock; Will be top 100 stocks\r\n             uint p1 = stocks[_source1][k].price;\r\n             uint p2 = stocks[_source2][k].price;\r\n             uint p3 = stocks[_source3][k].price;\r\n\r\n             bool result = errorMargins(p1, p2, p3);\r\n\r\n             if (result == true){\r\n                 emit discrepancy(\r\n                    stocks[_source1][k].ticker,\r\n                    stocks[_source1][k].price,\r\n                    stocks[_source2][k].ticker,\r\n                    stocks[_source2][k].price,\r\n                    stocks[_source3][k].ticker,\r\n                    stocks[_source3][k].price\r\n                    ); }\r\n         }\r\n\r\n         delete stocks[_source1]; delete stocks[_source2]; delete stocks[_source3];\r\n     }\r\n\r\n    function errorMargins(uint _p1, uint _p2, uint _p3) private view returns (bool) {\r\n        /*\r\n        This function checks for a significant price difference\r\n        for each stock between sources. The threshold level to emit an event is\r\n        configured in the configureErrorMargins function\r\n        */\r\n\r\n        uint temp1 = min (_p1, _p2);\r\n        uint temp2 = min (temp1, _p3);\r\n\r\n        uint comp1 = ( ( (_p1 - temp2) / temp2) * 100 );\r\n        uint comp2 = ( ( (_p2 - temp2) / temp2) * 100 );\r\n        uint comp3 = ( ( (_p3 - temp2) / temp2) * 100 );\r\n\r\n        if ( comp1 > threshold) return true;\r\n        if ( comp2 > threshold) return true;\r\n        if ( comp3 > threshold) return true;\r\n\r\n        return false;\r\n\r\n    }\r\n\r\n     function addSource(address _source) public {\r\n         require (msg.sender == owner,\r\n            \"Only owner can call this function.\");\r\n\r\n         whiteList[_source] = true;\r\n         oracleArr.push(_source);\r\n     }\r\n\r\n     function readStockData()\r\n        public isAuthorized\r\n        view\r\n        returns (Stock[] memory)\r\n        { return stocks[msg.sender]; }\r\n\r\n\r\n     function configureErrorMargins(uint _threshold) public {\r\n         require(msg.sender == owner, \"Only the owner of this contract can modify values\");\r\n         threshold = _threshold;\r\n     }\r\n\r\n     //function to determine the smallest between two values. Used as a way to \r\n     //find the percent difference between two prices, and to avoid negative values\r\n\r\n     function min(uint a, uint b) private pure returns (uint) {\r\n         return a < b ? a : b;\r\n    }\r\n\r\n}",
  "sourcePath": "C:/Users/Waleed Elsakka/Documents/Bounties/finchain-demo/Docker/wrkchain/assets/finchain-oracle-contract/contracts/Finchain.sol",
  "compiler": {
    "name": "solc",
    "version": "0.5.8+commit.23d335f2.Emscripten.clang"
  },
  "schemaVersion": "3.0.11",
  "updatedAt": "2019-07-30T08:40:21.403Z",
  "devdoc": {
    "methods": {}
  },
  "userdoc": {
    "methods": {}
  }
}