{
  "contractName": "Finchain",
  "abi": [
    {
      "constant": true,
      "inputs": [
        {
          "name": "",
          "type": "address"
        },
        {
          "name": "",
          "type": "uint256"
        }
      ],
      "name": "stocks",
      "outputs": [
        {
          "name": "ticker",
          "type": "string"
        },
        {
          "name": "price",
          "type": "uint256"
        },
        {
          "name": "timestamp",
          "type": "uint256"
        },
        {
          "name": "sourceID",
          "type": "address"
        }
      ],
      "payable": false,
      "stateMutability": "view",
      "type": "function"
    },
    {
      "constant": true,
      "inputs": [
        {
          "name": "",
          "type": "address"
        }
      ],
      "name": "whiteList",
      "outputs": [
        {
          "name": "",
          "type": "bool"
        }
      ],
      "payable": false,
      "stateMutability": "view",
      "type": "function"
    },
    {
      "constant": true,
      "inputs": [],
      "name": "threshold",
      "outputs": [
        {
          "name": "",
          "type": "uint256"
        }
      ],
      "payable": false,
      "stateMutability": "view",
      "type": "function"
    },
    {
      "constant": true,
      "inputs": [
        {
          "name": "",
          "type": "uint256"
        }
      ],
      "name": "oracleArr",
      "outputs": [
        {
          "name": "",
          "type": "address"
        }
      ],
      "payable": false,
      "stateMutability": "view",
      "type": "function"
    },
    {
      "constant": true,
      "inputs": [],
      "name": "owner",
      "outputs": [
        {
          "name": "",
          "type": "address"
        }
      ],
      "payable": false,
      "stateMutability": "view",
      "type": "function"
    },
    {
      "inputs": [
        {
          "name": "_threshold",
          "type": "uint256"
        }
      ],
      "payable": false,
      "stateMutability": "nonpayable",
      "type": "constructor"
    },
    {
      "anonymous": false,
      "inputs": [
        {
          "indexed": true,
          "name": "_from",
          "type": "address"
        },
        {
          "indexed": false,
          "name": "_ticker",
          "type": "string"
        },
        {
          "indexed": false,
          "name": "_price",
          "type": "uint256"
        },
        {
          "indexed": false,
          "name": "_timestamp",
          "type": "uint256"
        },
        {
          "indexed": false,
          "name": "_id",
          "type": "address"
        }
      ],
      "name": "stockData",
      "type": "event"
    },
    {
      "anonymous": false,
      "inputs": [
        {
          "indexed": false,
          "name": "_ticker1",
          "type": "string"
        },
        {
          "indexed": false,
          "name": "_price1",
          "type": "uint256"
        },
        {
          "indexed": false,
          "name": "_ticker2",
          "type": "string"
        },
        {
          "indexed": false,
          "name": "_price2",
          "type": "uint256"
        },
        {
          "indexed": false,
          "name": "_ticker3",
          "type": "string"
        },
        {
          "indexed": false,
          "name": "_price3",
          "type": "uint256"
        }
      ],
      "name": "discrepancy",
      "type": "event"
    },
    {
      "constant": false,
      "inputs": [
        {
          "name": "_ticker",
          "type": "string"
        },
        {
          "name": "_price",
          "type": "uint256"
        },
        {
          "name": "i",
          "type": "uint256"
        }
      ],
      "name": "updateStock",
      "outputs": [],
      "payable": false,
      "stateMutability": "nonpayable",
      "type": "function"
    },
    {
      "constant": false,
      "inputs": [
        {
          "name": "_source",
          "type": "address"
        }
      ],
      "name": "addSource",
      "outputs": [],
      "payable": false,
      "stateMutability": "nonpayable",
      "type": "function"
    },
    {
      "constant": true,
      "inputs": [],
      "name": "readStockData",
      "outputs": [
        {
          "components": [
            {
              "name": "ticker",
              "type": "string"
            },
            {
              "name": "price",
              "type": "uint256"
            },
            {
              "name": "timestamp",
              "type": "uint256"
            },
            {
              "name": "sourceID",
              "type": "address"
            }
          ],
          "name": "",
          "type": "tuple[]"
        }
      ],
      "payable": false,
      "stateMutability": "view",
      "type": "function"
    },
    {
      "constant": false,
      "inputs": [
        {
          "name": "_threshold",
          "type": "uint256"
        }
      ],
      "name": "configureErrorMargins",
      "outputs": [],
      "payable": false,
      "stateMutability": "nonpayable",
      "type": "function"
    }
  ],
  "bytecode": "0x60806040523480156200001157600080fd5b5060405160208062001b21833981018060405262000033919081019062000110565b336000806101000a81548173ffffffffffffffffffffffffffffffffffffffff021916908373ffffffffffffffffffffffffffffffffffffffff1602179055506001600360008060009054906101000a900473ffffffffffffffffffffffffffffffffffffffff1673ffffffffffffffffffffffffffffffffffffffff1673ffffffffffffffffffffffffffffffffffffffff16815260200190815260200160002060006101000a81548160ff021916908315150217905550806001819055505062000146565b60006200010882516200013c565b905092915050565b6000602082840312156200012357600080fd5b60006200013384828501620000fa565b91505092915050565b6000819050919050565b6119cb80620001566000396000f3fe608060405260043610610099576000357c0100000000000000000000000000000000000000000000000000000000900463ffffffff1680631c26821d1461009e5780632a142b0b146100de578063372c12b11461010757806342cde4e814610144578063483ae7771461016f578063661e04e6146101ac5780638da5cb5b146101d7578063967561aa14610202578063d3fcf7ba1461022b575b600080fd5b3480156100aa57600080fd5b506100c560048036036100c09190810190611290565b610254565b6040516100d594939291906116e2565b60405180910390f35b3480156100ea57600080fd5b5061010560048036036101009190810190611267565b610358565b005b34801561011357600080fd5b5061012e60048036036101299190810190611267565b6104aa565b60405161013b91906116c7565b60405180910390f35b34801561015057600080fd5b506101596104ca565b6040516101669190611824565b60405180910390f35b34801561017b57600080fd5b5061019660048036036101919190810190611333565b6104d0565b6040516101a3919061168a565b60405180910390f35b3480156101b857600080fd5b506101c161050e565b6040516101ce91906116a5565b60405180910390f35b3480156101e357600080fd5b506101ec61074c565b6040516101f9919061168a565b60405180910390f35b34801561020e57600080fd5b50610229600480360361022491908101906112cc565b610771565b005b34801561023757600080fd5b50610252600480360361024d9190810190611333565b610a58565b005b60056020528160005260406000208181548110151561026f57fe5b906000526020600020906004020160009150915050806000018054600181600116156101000203166002900480601f01602080910402602001604051908101604052809291908181526020018280546001816001161561010002031660029004801561031c5780601f106102f15761010080835404028352916020019161031c565b820191906000526020600020905b8154815290600101906020018083116102ff57829003601f168201915b5050505050908060010154908060020154908060030160009054906101000a900473ffffffffffffffffffffffffffffffffffffffff16905084565b6000809054906101000a900473ffffffffffffffffffffffffffffffffffffffff1673ffffffffffffffffffffffffffffffffffffffff163373ffffffffffffffffffffffffffffffffffffffff161415156103e9576040517f08c379a00000000000000000000000000000000000000000000000000000000081526004016103e0906117a4565b60405180910390fd5b6001600360008373ffffffffffffffffffffffffffffffffffffffff1673ffffffffffffffffffffffffffffffffffffffff16815260200190815260200160002060006101000a81548160ff02191690831515021790555060048190806001815401808255809150509060018203906000526020600020016000909192909190916101000a81548173ffffffffffffffffffffffffffffffffffffffff021916908373ffffffffffffffffffffffffffffffffffffffff1602179055505050565b60036020528060005260406000206000915054906101000a900460ff1681565b60015481565b6004818154811015156104df57fe5b906000526020600020016000915054906101000a900473ffffffffffffffffffffffffffffffffffffffff1681565b606060011515600360003373ffffffffffffffffffffffffffffffffffffffff1673ffffffffffffffffffffffffffffffffffffffff16815260200190815260200160002060009054906101000a900460ff1615151415156105a5576040517f08c379a000000000000000000000000000000000000000000000000000000000815260040161059c906117e4565b60405180910390fd5b600560003373ffffffffffffffffffffffffffffffffffffffff1673ffffffffffffffffffffffffffffffffffffffff168152602001908152602001600020805480602002602001604051908101604052809291908181526020016000905b82821015610743578382906000526020600020906004020160806040519081016040529081600082018054600181600116156101000203166002900480601f0160208091040260200160405190810160405280929190818152602001828054600181600116156101000203166002900480156106c15780601f10610696576101008083540402835291602001916106c1565b820191906000526020600020905b8154815290600101906020018083116106a457829003601f168201915b5050505050815260200160018201548152602001600282015481526020016003820160009054906101000a900473ffffffffffffffffffffffffffffffffffffffff1673ffffffffffffffffffffffffffffffffffffffff1673ffffffffffffffffffffffffffffffffffffffff168152505081526020019060010190610604565b50505050905090565b6000809054906101000a900473ffffffffffffffffffffffffffffffffffffffff1681565b60011515600360003373ffffffffffffffffffffffffffffffffffffffff1673ffffffffffffffffffffffffffffffffffffffff16815260200190815260200160002060009054906101000a900460ff161515141515610806576040517f08c379a00000000000000000000000000000000000000000000000000000000081526004016107fd906117e4565b60405180910390fd5b600360025410151561084d576040517f08c379a0000000000000000000000000000000000000000000000000000000008152600401610844906117c4565b60405180910390fd5b600560003373ffffffffffffffffffffffffffffffffffffffff1673ffffffffffffffffffffffffffffffffffffffff1681526020019081526020016000206080604051908101604052808581526020018481526020014281526020013373ffffffffffffffffffffffffffffffffffffffff1681525090806001815401808255809150509060018203906000526020600020906004020160009091929091909150600082015181600001908051906020019061090b929190611072565b50602082015181600101556040820151816002015560608201518160030160006101000a81548173ffffffffffffffffffffffffffffffffffffffff021916908373ffffffffffffffffffffffffffffffffffffffff1602179055505050506063811415610986576002600081548092919060010191905055505b60036002541415610a53576000600281905550610a52600460008154811015156109ac57fe5b9060005260206000200160009054906101000a900473ffffffffffffffffffffffffffffffffffffffff16600460018154811015156109e757fe5b9060005260206000200160009054906101000a900473ffffffffffffffffffffffffffffffffffffffff1660046002815481101515610a2257fe5b9060005260206000200160009054906101000a900473ffffffffffffffffffffffffffffffffffffffff16610af3565b5b505050565b6000809054906101000a900473ffffffffffffffffffffffffffffffffffffffff1673ffffffffffffffffffffffffffffffffffffffff163373ffffffffffffffffffffffffffffffffffffffff16141515610ae9576040517f08c379a0000000000000000000000000000000000000000000000000000000008152600401610ae090611804565b60405180910390fd5b8060018190555050565b60005b6001811015610ebd576000600560008673ffffffffffffffffffffffffffffffffffffffff1673ffffffffffffffffffffffffffffffffffffffff16815260200190815260200160002082815481101515610b4d57fe5b90600052602060002090600402016001015490506000600560008673ffffffffffffffffffffffffffffffffffffffff1673ffffffffffffffffffffffffffffffffffffffff16815260200190815260200160002083815481101515610baf57fe5b90600052602060002090600402016001015490506000600560008673ffffffffffffffffffffffffffffffffffffffff1673ffffffffffffffffffffffffffffffffffffffff16815260200190815260200160002084815481101515610c1157fe5b90600052602060002090600402016001015490506000610c32848484610fa4565b9050600115158115151415610eae577f6e2b598a0b90c5d98001a69969b2684c4578c680e47c28807030c0eef8f3f799600560008a73ffffffffffffffffffffffffffffffffffffffff1673ffffffffffffffffffffffffffffffffffffffff16815260200190815260200160002086815481101515610cae57fe5b9060005260206000209060040201600001600560008b73ffffffffffffffffffffffffffffffffffffffff1673ffffffffffffffffffffffffffffffffffffffff16815260200190815260200160002087815481101515610d0b57fe5b906000526020600020906004020160010154600560008b73ffffffffffffffffffffffffffffffffffffffff1673ffffffffffffffffffffffffffffffffffffffff16815260200190815260200160002088815481101515610d6957fe5b9060005260206000209060040201600001600560008c73ffffffffffffffffffffffffffffffffffffffff1673ffffffffffffffffffffffffffffffffffffffff16815260200190815260200160002089815481101515610dc657fe5b906000526020600020906004020160010154600560008c73ffffffffffffffffffffffffffffffffffffffff1673ffffffffffffffffffffffffffffffffffffffff1681526020019081526020016000208a815481101515610e2457fe5b9060005260206000209060040201600001600560008d73ffffffffffffffffffffffffffffffffffffffff1673ffffffffffffffffffffffffffffffffffffffff1681526020019081526020016000208b815481101515610e8157fe5b906000526020600020906004020160010154604051610ea59695949392919061172e565b60405180910390a15b50505050806001019050610af6565b600560008573ffffffffffffffffffffffffffffffffffffffff1673ffffffffffffffffffffffffffffffffffffffff1681526020019081526020016000206000610f0891906110f2565b600560008473ffffffffffffffffffffffffffffffffffffffff1673ffffffffffffffffffffffffffffffffffffffff1681526020019081526020016000206000610f5391906110f2565b600560008373ffffffffffffffffffffffffffffffffffffffff1673ffffffffffffffffffffffffffffffffffffffff1681526020019081526020016000206000610f9e91906110f2565b50505050565b600080610fb18585611059565b90506000610fbf8285611059565b90506000606482838903811515610fd257fe5b040290506000606483848903811515610fe757fe5b040290506000606484858903811515610ffc57fe5b0402905060015483111561101857600195505050505050611052565b60015482111561103057600195505050505050611052565b60015481111561104857600195505050505050611052565b6000955050505050505b9392505050565b6000818310611068578161106a565b825b905092915050565b828054600181600116156101000203166002900490600052602060002090601f016020900481019282601f106110b357805160ff19168380011785556110e1565b828001600101855582156110e1579182015b828111156110e05782518255916020019190600101906110c5565b5b5090506110ee9190611116565b5090565b5080546000825560040290600052602060002090810190611113919061113b565b50565b61113891905b8082111561113457600081600090555060010161111c565b5090565b90565b61119e91905b8082111561119a576000808201600061115a91906111a1565b600182016000905560028201600090556003820160006101000a81549073ffffffffffffffffffffffffffffffffffffffff021916905550600401611141565b5090565b90565b50805460018160011615610100020316600290046000825580601f106111c757506111e6565b601f0160209004906000526020600020908101906111e59190611116565b5b50565b60006111f58235611922565b905092915050565b600082601f830112151561121057600080fd5b813561122361121e8261186c565b61183f565b9150808252602083016020830185838301111561123f57600080fd5b61124a83828461193e565b50505092915050565b600061125f8235611934565b905092915050565b60006020828403121561127957600080fd5b6000611287848285016111e9565b91505092915050565b600080604083850312156112a357600080fd5b60006112b1858286016111e9565b92505060206112c285828601611253565b9150509250929050565b6000806000606084860312156112e157600080fd5b600084013567ffffffffffffffff8111156112fb57600080fd5b611307868287016111fd565b935050602061131886828701611253565b925050604061132986828701611253565b9150509250925092565b60006020828403121561134557600080fd5b600061135384828501611253565b91505092915050565b611365816118da565b82525050565b6000611376826118b7565b8084526020840193508360208202850161138f85611898565b60005b848110156113c85783830388526113aa838351611618565b92506113b5826118cd565b9150602088019750600181019050611392565b508196508694505050505092915050565b6113e2816118ec565b82525050565b60006113f3826118c2565b80845261140781602086016020860161194d565b61141081611980565b602085010191505092915050565b60008154600181166000811461143b576001811461145b5761149c565b607f600283041680865260ff19831660208701526040860193505061149c565b60028204808652602086019550611471856118a5565b60005b8281101561149357815481890152600182019150602081019050611474565b80880195505050505b505092915050565b6000602282527f4f6e6c79206f776e65722063616e2063616c6c20746869732066756e6374696f60208301527f6e2e0000000000000000000000000000000000000000000000000000000000006040830152606082019050919050565b6000602682527f4f6e6c79207468726565206f7261636c65732063757272656e746c792070657260208301527f6d697474656400000000000000000000000000000000000000000000000000006040830152606082019050919050565b6000603182527f4f6e6c7920617574686f72697a6564206164647265737365732063616e20636160208301527f6c6c20746869732066756e6374696f6e2e0000000000000000000000000000006040830152606082019050919050565b6000603182527f4f6e6c7920746865206f776e6572206f66207468697320636f6e74726163742060208301527f63616e206d6f646966792076616c7565730000000000000000000000000000006040830152606082019050919050565b6000608083016000830151848203600086015261163582826113e8565b915050602083015161164a602086018261167b565b50604083015161165d604086018261167b565b506060830151611670606086018261135c565b508091505092915050565b61168481611918565b82525050565b600060208201905061169f600083018461135c565b92915050565b600060208201905081810360008301526116bf818461136b565b905092915050565b60006020820190506116dc60008301846113d9565b92915050565b600060808201905081810360008301526116fc81876113e8565b905061170b602083018661167b565b611718604083018561167b565b611725606083018461135c565b95945050505050565b600060c0820190508181036000830152611748818961141e565b9050611757602083018861167b565b8181036040830152611769818761141e565b9050611778606083018661167b565b818103608083015261178a818561141e565b905061179960a083018461167b565b979650505050505050565b600060208201905081810360008301526117bd816114a4565b9050919050565b600060208201905081810360008301526117dd81611501565b9050919050565b600060208201905081810360008301526117fd8161155e565b9050919050565b6000602082019050818103600083015261181d816115bb565b9050919050565b6000602082019050611839600083018461167b565b92915050565b6000604051905081810181811067ffffffffffffffff8211171561186257600080fd5b8060405250919050565b600067ffffffffffffffff82111561188357600080fd5b601f19601f8301169050602081019050919050565b6000602082019050919050565b60008160005260206000209050919050565b600081519050919050565b600081519050919050565b6000602082019050919050565b60006118e5826118f8565b9050919050565b60008115159050919050565b600073ffffffffffffffffffffffffffffffffffffffff82169050919050565b6000819050919050565b600061192d826118f8565b9050919050565b6000819050919050565b82818337600083830152505050565b60005b8381101561196b578082015181840152602081019050611950565b8381111561197a576000848401525b50505050565b6000601f19601f830116905091905056fea265627a7a72305820888c1962572cb357c8966a49f262069ad0e87a1bab6b35b0bd8599021b28be2a6c6578706572696d656e74616cf50037",
  "source": "pragma solidity >=0.5.0;\r\npragma experimental ABIEncoderV2 ; //To remove or not remove?\r\n\r\ncontract Finchain {\r\n    \r\n     address public owner;\r\n     uint public threshold;\r\n     uint shadowCounter; //used to keep track of how many of the oracles updated their stocks\r\n\r\n     modifier isAuthorized() {\r\n     require (whiteList[msg.sender] == true,\r\n        \"Only authorized addresses can call this function.\");\r\n      _;\r\n     }\r\n\r\n     //struct to store Stock data\r\n     struct Stock {\r\n         string ticker;\r\n         uint256 price;\r\n         uint timestamp;\r\n         address sourceID;\r\n     }\r\n\r\n     //event to emit stock data\r\n     event stockData(\r\n         address indexed _from,\r\n         string _ticker,\r\n         uint256 _price,\r\n         uint _timestamp,\r\n         address _id\r\n    );\r\n\r\n    //event shows which stock has a possible arbitrage opportunity at a specified price\r\n     event discrepancy(\r\n         string _ticker1,\r\n         uint256 _price1,\r\n         string _ticker2,\r\n         uint256 _price2,\r\n         string _ticker3,\r\n         uint256 _price3\r\n         \r\n    );\r\n\r\n     mapping (address => bool) public whiteList; //whitelisted oracle addresses\r\n     address[] public oracleArr; //array of oracle addresses\r\n     /*\r\n     Mapping of oracle Addresses to stock arrays\r\n     This allocates an array of stock structs to every oracle address\r\n     */\r\n     mapping(address => Stock[]) public stocks;\r\n\r\n\r\n     constructor (uint _threshold) public {\r\n        owner = msg.sender;\r\n        whiteList[owner] = true;\r\n        threshold = _threshold;\r\n  }\r\n\r\n     function updateStock (\r\n         string memory _ticker,\r\n         uint256 _price,\r\n         uint i // array index, to be passed by nodeJS process\r\n         )\r\n         public isAuthorized{\r\n         require (shadowCounter < 3, \"Only three oracles currently permitted\");\r\n\r\n         stocks[msg.sender].push(Stock({ticker: _ticker, price: _price, timestamp: now, sourceID: msg.sender }));\r\n         \r\n         if (i == 99) shadowCounter++;\r\n\r\n         if (shadowCounter == 3){\r\n             shadowCounter = 0;\r\n             compareStocks(oracleArr[0], oracleArr[1], oracleArr[2]); //move on to next state\r\n         }\r\n     }\r\n\r\n     function compareStocks(address _source1, address _source2, address _source3) private {\r\n         \r\n         uint k; //counter\r\n         for (k; k < 1 ; ++k){ //k < 1 just as an example of 1 stock; Will be top 100 stocks\r\n             uint p1 = stocks[_source1][k].price;\r\n             uint p2 = stocks[_source2][k].price;\r\n             uint p3 = stocks[_source3][k].price;\r\n             \r\n             bool result = errorMargins(p1, p2, p3);\r\n             \r\n             if (result == true){\r\n                 emit discrepancy(\r\n                    stocks[_source1][k].ticker,\r\n                    stocks[_source1][k].price,\r\n                    stocks[_source2][k].ticker,\r\n                    stocks[_source2][k].price,\r\n                    stocks[_source3][k].ticker,\r\n                    stocks[_source3][k].price\r\n                    ); }\r\n                    \r\n            \r\n         }\r\n         \r\n         delete stocks[_source1]; delete stocks[_source2]; delete stocks[_source3];\r\n     }\r\n     \r\n    function errorMargins(uint _p1, uint _p2, uint _p3) private view returns (bool) {\r\n        /*\r\n        This function checks for a significant price difference\r\n        for each stock between sources. The threshold level to emit an event is\r\n        configured in the configureErrorMargins function\r\n        */\r\n        \r\n        uint temp1 = min (_p1, _p2);\r\n        uint temp2 = min (temp1, _p3);\r\n        \r\n        uint comp1 = ( ( (_p1 - temp2) / temp2) * 100 );\r\n        uint comp2 = ( ( (_p2 - temp2) / temp2) * 100 );\r\n        uint comp3 = ( ( (_p3 - temp2) / temp2) * 100 );\r\n        \r\n        if ( comp1 > threshold) return true;\r\n        if ( comp2 > threshold) return true;\r\n        if ( comp3 > threshold) return true;\r\n        \r\n        return false;\r\n        \r\n    }\r\n    \r\n     function addSource(address _source) public {\r\n         require (msg.sender == owner,\r\n            \"Only owner can call this function.\");\r\n\r\n         whiteList[_source] = true;\r\n         oracleArr.push(_source);\r\n     }\r\n    \r\n     function readStockData()\r\n        public isAuthorized\r\n        view\r\n        returns (Stock[] memory)\r\n        { return stocks[msg.sender]; }\r\n\r\n\r\n     function configureErrorMargins(uint _threshold) public {\r\n         require(msg.sender == owner, \"Only the owner of this contract can modify values\");\r\n         threshold = _threshold;\r\n     }\r\n     \r\n     //function to determine the smallest between two values. Used as a way to \r\n     //find the percent difference between two prices, and to avoid negative\r\n     //values\r\n     function min(uint a, uint b) private pure returns (uint) {\r\n         return a < b ? a : b;\r\n    }\r\n\r\n}",
  "sourcePath": "C:/Users/Waleed/Documents/Bounties/finchain-demo/Docker/wrkchain/assets/finchain-oracle-contract/contracts/Finchain.sol",
  "compiler": {
    "name": "solc",
    "version": "0.5.0+commit.1d4f565a.Emscripten.clang"
  },
  "schemaVersion": "3.0.9",
  "updatedAt": "2019-06-27T03:07:32.641Z",
  "devdoc": {
    "methods": {}
  },
  "userdoc": {
    "methods": {}
  }
}